:020000040800F2
:1000000020160020C1010008F50F00082F0F00087E
:10001000F10F00082F090008DF1B00080000000096
:10002000000000000000000000000000B115000802
:10003000850D000800000000AD100008E116000862
:10004000DB010008DB010008DB010008DB01000820
:10005000DB010008DB010008DB010008DB01000810
:10006000DB010008DB010008DB010008DB01000800
:10007000DB010008DB010008DB010008DB010008F0
:10008000DB010008DB010008DB010008DB010008E0
:10009000DB010008DB010008DB010008DB010008D0
:1000A000DB010008DB010008DB010008DB010008C0
:1000B000DB010008DB010008DB010008DB010008B0
:1000C000DB010008DB010008DB010008DB010008A0
:1000D000DB010008DB010008DB010008DB01000890
:1000E000DB010008DB010008DB010008DB01000880
:1000F000DB010008DB010008DB010008DB01000870
:10010000DB010008DB010008DB010008DB0100085F
:10011000DB010008DB010008DB010008CD17000847
:10012000DB010008DB010008DB010008DB0100083F
:10013000DB010008DB010008DB010008DB0100082F
:10014000DB010008DB010008DB010008DB0100081F
:10015000DB010008DB010008DB010008DB0100080F
:10016000DB010008DB010008DB010008DB010008FF
:10017000DB010008DB010008DB010008DB010008EF
:10018000DB010008DB01000855190008DB0100084D
:10019000DB010008DB010008DB010008DB010008CF
:1001A0000000000000000000DB010008DFF80CD0B8
:1001B00000F05AFB00480047613400082016002078
:1001C0000648804706480047FEE7FEE7FEE7FEE7F1
:1001D000FEE7FEE7FEE7FEE7FEE7FEE7651700083D
:1001E000AD0100082DE9FE4F804681EA0300C00FF3
:1001F0000C46009021F0004123F00045B8EB0200CE
:10020000A94105D24046214690461C460B4602466F
:1002100023F00040104347D0270DC7F30A00C3F373
:100220000A510290401A019040286BDAC3F3130080
:1002300040F4801B0098924620B10023D2EB030AC1
:1002400063EB0B0B01985946C0F14002504600F099
:1002500006FA06460D4650465946019A00F01EFA27
:1002600010EB08006141002487EA115284EAE77329
:100270001A4340D0009A62B3019A012A4FEA07520A
:1002800015DC001B61EB02014FF0004202EA07524D
:10029000CDE90042001C41F5801132462B4600F0AA
:1002A00055FA03B0BDE8F08F40462146F9E7001B40
:1002B00061EB0201001C41F5801300185B4120181E
:1002C000A2F5001747EB030140EAD570B6196D415E
:1002D00011E06D084FEA360645EAC0754FEA07524D
:1002E000001B61EB0201001C41F5801149084FEA37
:1002F00030000019514132462B4603B0BDE8F04FA3
:1003000000F015BA0098012240000023D0EB020251
:1003100063EBE073009821464FEAE074B8EB00000D
:1003200061EB0401E9E783F000435BE781F0004102
:1003300058E72DE9FE4F81EA030404F0004421F060
:10034000004100944FF0000B23F0004350EA0104F9
:100350005ED052EA03045BD0C3F30A54C1F30A55DA
:100360002C44A4F2F3340194A0FB0254C1F3130112
:1003700041F48011C3F3130343F4801301FB0244DF
:1003800000FB034E840A970A44EA815447EA8357E4
:10039000A4FB076802958D0A05FB07854FEA932C9D
:1003A00004FB0C542705029D4FEA065847EA16370E
:1003B000B5EB08056EEB070C870E920E47EA811726
:1003C00042EA8312A7FB0201B6EB0B0164EB0004C7
:1003D0002B0D43EA0C335E1844EB1C50DA465146B1
:1003E000E7FB0201C5F313044FEA0B3343EA14534E
:1003F0004FEA0432019C43EA0603A4F10C04029480
:10040000009CCDE900B400F0A1F903B0BDE8F08F85
:1004100000200146F9E72DE9F04D81EA030404F0DC
:10042000004B21F0004514464FF0000A23F0004134
:1004300050EA050220D054EA01021DD0C5F30A5744
:100440000246C5F31303C1F31300C1F30A5640F487
:10045000801543F48013A7EB0608101BD64608F25C
:10046000FD3873EB050002D308F1010801E0921892
:100470005B41B8F1000F03DA00200146BDE8F08DC2
:1004800000204FF48011064684460EE0171B73EBE4
:10049000050705D3121B63EB050306434CEA010C69
:1004A00049084FEA300092185B4150EA0107EDD14C
:1004B00052EA030012D082EA040083EA05010843ED
:1004C00005D0101BAB4106D20122002306E000221A
:1004D0004FF0004302E06FF0010253101AEB0600E8
:1004E0004CEB085110EB0A0041EB0B01BDE8F04D5D
:1004F00000F01DB90EB540F2334102910021CDE963
:1005000000110A460B4600F021F903B000BDC1F30B
:100510000A5210B5C1F3130140F2FF3341F48011C8
:100520009A4201DA002010BD40F233439A42A2F20F
:10053000334203DC524200F0A1F810BD904010BDE0
:1005400000F0004230F000400AD0C10D01F56071AA
:10055000C0F3160042EA0151C20840071143704738
:10056000002001467047000030B5041E71F1000400
:1005700004DB4FF00044404264EB0101141E73F1B0
:10058000000405DB1C464FF00043524263EB0403BA
:10059000994208BF904230BD01F0004330B421F0D1
:1005A000004150EA010206D00A0DA2F56072C1F3C3
:1005B0001301002A02DC30BC00207047440F44EADB
:1005C000C104C100E01830BC00EBC25000F078B8A4
:1005D00030B50B46014600202022012409E021FA13
:1005E00002F59D4205D303FA02F5491B04FA02F510
:1005F0002844151EA2F10102F1DC30BD2DE9F05FA7
:100600000546002092469B46884606468146402481
:100610001BE0284641464746224600F02FF8534645
:100620005A46C01A914110D311461846224600F08E
:1006300016F82D1A67EB01084F46224601200021CB
:1006400000F00DF817EB00094E41201EA4F1010443
:10065000DFDC484631462A464346BDE8F09F202A63
:1006600004DB203A00FA02F1002070479140C2F109
:10067000200320FA03F3194390407047202A04DB3B
:10068000203A21FA02F00021704721FA02F3D0400B
:10069000C2F120029140084319467047202A06DB28
:1006A000CB17203A41FA02F043EAE07306E041FA40
:1006B00002F3D040C2F1200291400843194670472E
:1006C0000029A8BF7047401C490008BF20F0010066
:1006D000704710B4B0FA80FC00FA0CF050EA010444
:1006E00004BF10BC704749B1CCF1200421FA04F4D6
:1006F00011FA0CF118BF012121430843A3EB0C01AF
:10070000CB1D4FEA00614FEA102042BF002010BC11
:10071000704700EBC35010440029A4BF10BC7047C1
:10072000401C490008BF20F0010010BC704710B504
:10073000141E73F1000408DA401C41F10001921804
:100740005B411A4301D120F0010010BD2DE9F04DAD
:1007500092469B4611B1B1FA81F202E0B0FA80F202
:1007600020329046FFF77BFF04460F4640EA0A001E
:1007700041EA0B0153465A46084313D0114653EA47
:10078000010019D0C8F140025046FFF777FF054637
:100790000E46504659464246FFF761FF084305D0D2
:1007A000012004E020463946BDE8F08D00200543D5
:1007B00046EAE0762C4337430A986305E40AA0EB47
:1007C00008000022FD0A44EA47540A3002D50020FE
:1007D0000146E9E7010510196941DDE908450019FD
:1007E0006941BDE8F04DA2E770B521F00043034335
:1007F0000CD0C1F30A550024D5EB040564EB0403C7
:10080000D617AD1AB34102DB0020014670BD201897
:1008100041EB025170BD0EB5C10F80EAE070084493
:10082000CA07002140F233438DE80E000A460B460A
:10083000FFF78CFF03B000BDC1F30A52C1F31301EF
:1008400040F2FF3341F480119A4202DA002001465F
:10085000704740F233439A42A2F2334202DC5242E2
:10086000FFF70CBFFFF7FBBE064C074D06E0E06844
:1008700040F0010394E8070098471034AC42F6D3E7
:10088000FFF798FC58360008783600082DE9F04D3F
:1008900000231A461B1A8A4103DB00200146BDE8EB
:1008A000F08DC1F30A52C1F3130141F480154FF0EA
:1008B000000BD10702D100186D41521E00270446DB
:1008C00040F2FF11384601EB620A3E46804602467E
:1008D00000204FF48011FFF7D1FEC2197141BB18FF
:1008E00046EB0100B4EB030C75EB000C04D3E41AE7
:1008F00065EB000517460E46241908F101006D410D
:1009000080463428E3DDF91946EB0600091BA841AF
:1009100003D24FF0FF32134601E0002213461BEBD7
:10092000070046EB0A51BDE8F04DFFF700BF00BFDE
:10093000FEE7000039B1084A1268012383401A43D8
:10094000054B1A6006E0044A1268012383409A436B
:10095000014B1A60704700000074004010B501217F
:10096000480700F0C5FB00214FF0005000F0C0FB2D
:1009700010BD000030B5002200230A4C226840F66A
:10098000FE748440A243D1E900452C438D682C437A
:10099000CD6844EA050303FA00F42243014C2260C7
:1009A00030BD00000074004008B500220092054AE6
:1009B000009200F10802009B1A440092009A116014
:1009C00008BD0000007400401CB50121084600F07D
:1009D0006FFB0121022000F06BFB0121082000F0D9
:1009E00067FB0121102000F063FB4FF400400090F2
:1009F00001208DF8040000208DF8060003208DF8FA
:100A0000050001208DF8070069461E4800F020FA15
:100A10004FF48070009001208DF8040000208DF8C4
:100A2000060003208DF8050001208DF807006946B7
:100A3000154800F00DFA41F29000009001208DF869
:100A4000040000208DF8060003208DF80500012029
:100A50008DF8070069460D4800F0FAF90C20009067
:100A600001208DF8040000208DF8060003208DF889
:100A7000050001208DF807006946054800F0E8F9F7
:100A80001CBD00000000024000040240000C0240B7
:100A90000010024000B587B00121480300F038FB88
:100AA0000121102000F004FB05220C212E4800F04B
:100AB00017FA05220D212C4800F012FA05220E210A
:100AC000294800F00DFA4FF40050009002208DF8F4
:100AD000040000208DF8060002208DF807008DF834
:100AE00005006946204800F0B3F94FF4A04000909B
:100AF00002208DF8040000208DF8060002208DF8F9
:100B000007008DF805006946174800F0A1F900219B
:100B1000164800F0BDFC154800F0C6FC0020ADF8FA
:100B200008004FF48270ADF80A000020ADF80C0008
:100B3000ADF80E000120ADF810004002ADF8120033
:100B40002020ADF814000020ADF816000720ADF805
:100B5000180002A9054800F00DFD0121034800F02E
:100B600097FC07B000BD00000010024000340140B7
:100B70002DE9F0412DED068B00F0DAF89FED440AE7
:100B800000F0A4F8322000F0FFF8FFF71DFF4FF44B
:100B90008071404800F0C9F9322000F0F5F8FFF705
:100BA00079FF08213C4800F0C0F904213A4800F0E0
:100BB000BAF94FF40041394800F0B5F9102138482E
:100BC00000F0B1F98021364800F0ADF99FED351BFA
:100BD0009FED360B01F030F8B0EE40AAF0EE60AABF
:100BE0009FED340B53EC102B51EC1A0BFFF7A1FBCC
:100BF00041EC190B9FED310B53EC102BFFF793FBDE
:100C000041EC180BFFF783FC07464FF4804000EBE4
:100C1000973084B2C7F30D0000F58045202000F026
:100C20000FFC382000F00CFC2E46E91705EB116193
:100C30000912A5EB0121C8B200F002FCE91705EB8F
:100C40001161C1F3072000F0FBFB2646E11704EB1E
:100C500011610912A4EB0121C8B200F0F1FBE11708
:100C600004EB1161C1F3072000F0EAFB002000F063
:100C7000E7FB0446002000F0E3FB05462246294638
:100C800010A000F0AFFFBDEC068BBDE8F0810000C6
:100C9000CDCCCC3D000402400010024000000240D8
:100CA000000C02400000000000003C40000000007A
:100CB00000000040000000000000000000000000F4
:100CC0000000F03F25782025780D0A0010B52DEDA5
:100CD000068BB0EE408A18EE100AFFF731FC41ECAB
:100CE000190B9FED0F0B53EC102B51EC190BFFF769
:100CF00020FB41EC1A0B9FED0C0B53EC102BFFF774
:100D00008AFB41EC190B51EC190BFFF700FC84B284
:100D100021460020FFF748FEBDEC068B10BD000009
:100D2000000000000000B0406666666666660A4025
:100D30001CB50121084600F0BBF90121480700F06D
:100D4000C7F91020009003208DF8040002208DF8D0
:100D500007006946094800F07BF800200849086050
:100D600048608860C860FFF705FE01210020FFF79A
:100D7000E1FD00210846FFF717FE1CBD0000024000
:100D80000C0A00207047000001B504490098086073
:100D900000BF024800680028FBD108BD0400002005
:100DA0001CB50121084600F083F90121022000F062
:100DB0007FF90121042000F07BF90121082000F0D7
:100DC00077F90121102000F073F94FF48070009042
:100DD00001208DF8040000208DF8060003208DF816
:100DE000050001208DF807006946164800F030F82C
:100DF0000720009001208DF8040000208DF80600E7
:100E000003208DF8050001208DF8070069460E4883
:100E100000F01EF840F20120009001208DF804003F
:100E200000208DF8060003208DF8050001208DF8C4
:100E300007006946054800F00BF80F2000F09CF809
:100E40001CBD0000000002400004024000100240EF
:100E5000F0B50A4600210023002400BF3DE0012533
:100E600005FA01F3156805EA03049C4234D10568CC
:100E70004F000326BE40B543056015794E00B540CE
:100E80000668354305601579012D02D01579022DCC
:100E900016D185684F000326BE40B543856055795D
:100EA0004E00B540866835438560456801268E4012
:100EB000B5434560456896798E40B6B23543456086
:100EC000C5684F000326BE40B543C560D5794E00C6
:100ED000B540C6683543C560491C1029BFD3F0BD75
:100EE000F0B5002300244D07ED0E02FA05F3CE10F5
:100EF00000F1200555F826504E07F70E0F26BE408C
:100F0000B543CF1000F1200646F82750CE1000F16F
:100F1000200555F8265045EA0304CE1000F12005BF
:100F200045F82640F0BD418370470183704700BFFC
:100F3000FEE71FB5684600F00BF94FF47A7101988F
:100F4000B0FBF1F4601EB0F1807F00D30FE0601EB3
:100F50004FF0E02148610F214FF0FF3000F092F890
:100F600000204FF0E02188610720086100BF0021C8
:100F7000481E00F087F81FBD00F0010119B14FF4C1
:100F800000710A4A118300F0020111B10421084ADC
:100F9000118000F0040111B10221054A118000F016
:100FA000080111B10121024A11807047001002406E
:100FB0001804024000F0010119B14FF400710A4A0F
:100FC000518300F0020111B10421084A118000F0A0
:100FD000040111B10221054A118000F0080111B18C
:100FE0000121024A11807047001002401A04024099
:100FF00000BFFEE77047000070B5002100230F22FC
:10100000C4781CB3174C246804F4E064C4F5E064AD
:10101000C4F30721C1F10404E3B20A4144789C40BF
:10102000E1B28478144021430C07210E0E4C057860
:101030006155047804F01F050124AC4005786D115A
:10104000AD0005F1E025C5F8004109E0047804F0A1
:101050001F050124AC40054D0678761145F8264061
:1010600070BD00000CED00E000E400E080E100E075
:1010700002490143024A1160704700000000FA056E
:101080000CED00E010B5002807DA0A07140E054A37
:1010900000F00F031B1FD45403E00A07130E024A8B
:1010A000135410BD18ED00E000E400E070470000AC
:1010B00029B1064A12680243044B1A6004E0034A4D
:1010C00012688243014B1A607047000030380240BA
:1010D00029B1064A12680243044B1A6004E0034A2D
:1010E00012688243014B1A6070470000403802408A
:1010F00029B1064A12680243044B1A6004E0034A0D
:1011000012688243014B1A60704700002038024089
:1011100029B1064A12680243044B1A6004E0034AEC
:1011200012688243014B1A60704700004438024045
:1011300029B1064A12680243044B1A6004E0034ACC
:1011400012688243014B1A60704700002438024045
:10115000F0B5002100220024022500260223324F90
:101160003F6807F00C0121B1042905D0082937D1C7
:1011700005E02E4F076036E02D4F076033E02A4F21
:101180003F1F3F68C7F38056274F3F1F3F6807F058
:101190003F036EB1264FB7FBF3F7DFF88CC0ACF11D
:1011A000040CDCF800C0CCF3881C07FB0CF40CE04A
:1011B0001E4FB7FBF3F7DFF870C0ACF1040CDCF89E
:1011C00000C0CCF3881C07FB0CF4174F3F1F3F688F
:1011D000C7F301477F1C7D00B4FBF5F7076002E011
:1011E000124F076000BF00BF0F4F3F6807F0F001CC
:1011F0000909104F7A5C0768D74047600A4F3F687B
:1012000007F4E051890A0B4F7A5C4768D740876042
:10121000054F3F6807F46041490B064F7A5C476809
:10122000D740C760F0BD0000083802400024F40039
:1012300040787D011200002010B50446012C0DD12C
:10124000C1031F48FFF771FE61031E48FFF76DFEE3
:1012500040211B48FFF767FE012010BD022C0DD175
:1012600021031848FFF761FE40211548FFF75DFE96
:10127000A1031348FFF757FE0120EEE7042C0DD120
:1012800040210F48FFF751FE61030D48FFF74DFE67
:10129000E1020C48FFF747FE0120DEE7082C0DD1E4
:1012A00040210748FFF741FE21030548FFF73DFEB7
:1012B000A1020448FFF739FE0120CEE70020CCE769
:1012C000001002400008024000B587B001218803E9
:1012D000FFF7FEFE01211620FFF7EAFE05220A2194
:1012E0004048FFF7FDFD052202213F48FFF7F8FDCA
:1012F000052203213C48FFF7F3FD4FF48060009086
:1013000002208DF8040000208DF8060002208DF8E0
:1013100007008DF8050069463248FFF799FD0C205B
:10132000009002208DF8040000208DF806000220B5
:101330008DF807008DF8050069462B48FFF788FDFA
:1013400048F24000009001208DF8040000208DF844
:10135000060001208DF8070002208DF8050069467F
:101360002248FFF775FD4FF40050009001208DF8E2
:10137000040000208DF8060001208DF807000220EF
:101380008DF8050069461848FFF762FD00211848EE
:1013900000F07EF8164800F087F80020ADF808004D
:1013A0004FF48270ADF80A000020ADF80C00ADF8E3
:1013B0000E000120ADF810004002ADF81200202010
:1013C000ADF814000020ADF816000720ADF81800A5
:1013D00002A9074800F0CEF80121054800F058F8AE
:1013E00007B000BD000402400008024000100240A7
:1013F0000038004070B504464FF6FF7500BF02216B
:101400000E4800F0A9F818B9281EA5F10105F6D17B
:1014100021460A4800F0ACF84FF6FF7500BF0121E5
:10142000064800F099F818B9281EA5F10105F6D173
:10143000024800F09AF8C0B270BD000000380040C9
:1014400070B504461048056800BF02210F4800F03F
:1014500083F818B9281EA5F10105F6D121460B48DD
:1014600000F086F80848056800BF0121074800F031
:1014700073F818B9281EA5F10105F6D1034800F04C
:1014800074F8C0B270BD00000800002000340140B4
:1014900021B1028842F04002028004E002884FF647
:1014A000BF731A400280704710B504462448844236
:1014B00008D101218014FFF73BFE0021A014FFF7A3
:1014C00037FE3CE01F48844208D101210014FFF799
:1014D0000FFE00212014FFF70BFE30E01A48844273
:1014E00008D10121C013FFF703FE0021E013FFF72D
:1014F000FFFD24E01548844208D101214014FFF784
:1015000017FE00216014FFF713FE18E01048844214
:1015100009D101210805FFF70BFE00214FF48010CF
:10152000FFF706FE0BE00B48844208D10121480575
:10153000FFF7FEFD00214FF40010FFF7F9FD10BD8D
:101540000030014000380040003C004000340140C1
:1015500000500140005401400246002013890B4016
:101560000BB1012000E000207047014688897047D8
:101570008181704710B50022028802F441520B8825
:101580004C8823438C882343CC8823430C892343F2
:101590004C8923438C892343CC8923431A430280FB
:1015A000838B4FF2FF74234083830B8A038210BD29
:1015B000704700000CB5002001900090444800687E
:1015C00040F48030424908600846006840F48020BA
:1015D000086000BF3E48006800F4003000900198A9
:1015E000401C0190009818B90198B0F5A04FF1D1B6
:1015F0003748006800F4003010B10120009001E08D
:10160000002000900098012860D1314840300068E7
:1016100040F080502E49403108602E48006840F468
:1016200040402C4908602A480830006828490831A1
:1016300008600846006840F40040086008460068FA
:1016400040F4A05008602448091F0860081F006883
:1016500040F08070091F086000BF1D48006800F05E
:1016600000700028F9D01B48006840F48030194908
:10167000086000BF1748406800F480300028F9D0A7
:101680001448006840F400301249086000BF114857
:10169000406800F400300028F9D040F205700F498E
:1016A00008600B480830006820F003000849083142
:1016B00008600846006840F00200086000BF044867
:1016C0000830006800F00C000828F8D10CBD0000BC
:1016D0000038024000700040195A4007003C0240A8
:1016E00010B51E48006820B11C480068401E1B4908
:1016F00008601B480068401C1949086008460068DB
:10170000C82803D10120FFF755FC26E014480068E3
:10171000B0F5C87F03D10220FFF74CFC1DE0104854
:101720000068B0F5167F03D10420FFF743FC14E0F6
:101730000B480068B0F5487F03D10820FFF73AFC5A
:101740000BE00748006840F21451884205D10020A0
:10175000034908600F20FFF70FFC10BD04000020B4
:101760000000002010B51548006840F470001349CF
:1017700008601348006840F001001149086000202B
:101780000F49083108600E4800680E4908400C49AE
:1017900008600D48091D0860081F006820F48020BB
:1017A000091F0860002006490C310860FFF702FF9E
:1017B0004FF0006001498039086010BD88ED00E0FD
:1017C00000380240FFFFF6FE103000247047000092
:1017D00070B52DED068B0120FFF72EFD0020FFF7E1
:1017E00009FE05460020FFF705FE06460820FFF724
:1017F00023FD46EA05242046FEF77CFE41EC1A0B49
:101800009FED160B53EC102BFEF793FD41EC190BDB
:10181000FEF7C2FE08EE900A04F40050B0F5005F37
:1018200008D19FED100A38EEC00ADFED0F0A80EEF6
:10183000208A03E09FED0C0A88EE808A18EE100AD9
:10184000FEF77EFE41EC190B53EC192B07A000F0BC
:10185000C9F9B0EE480ABDEC068B70BD000000006F
:101860000000F03F00008046000000424144545F09
:1018700074656D703D252E32660D0A0010B588B076
:10188000044652208DF8040002208DF805008DF8E2
:10189000060001208DF8070001A8FFF7ADFB01212C
:1018A0001020FFF705FC01218807FFF711FC082233
:1018B00007212648FFF714FB082211462348FFF7AB
:1018C0000FFB4FF48070029002208DF80C00032073
:1018D0008DF80D0000208DF80E0001208DF80F000E
:1018E00002A91A48FFF7B4FA8020029002A917480B
:1018F000FFF7AEFA04940020ADF81400ADF816001E
:10190000ADF81800ADF81C000C20ADF81A0004A9C1
:101910000F4800F0DDF840210D4800F059F8102183
:101920000B4800F055F8012240F22551084800F01C
:10193000AAF8012240F22441054800F0A4F8012150
:10194000034800F05DF808B010BD00000010024030
:101950000078004070B51A4C40F22551194800F04B
:1019600068F8D8B140F22551164800F03AF8154809
:1019700000F02CF9C5B2D4E90001401AFF2806D8BE
:10198000217804F1080045542068401C206020782C
:101990002179401AC0B20C4908800FE040F224417E
:1019A000084800F046F848B106480088C6B2054825
:1019B000001D0088C6B201200449087070BD0000F7
:1019C000C408002000780040100000200F00002014
:1019D00001F40072B2F5007F00D100BFCA4302805B
:1019E000704710B50022002340F66A14A14200D1CE
:1019F00000BF0A1201249440A3B2DC43048010BD4E
:101A000021B1828942F40052828104E082894DF63C
:101A1000FF731A408281704702460020B1F5007FB3
:101A200000D100BF13880B400BB1012000E0002063
:101A3000704770B50246002400230025002040F6C0
:101A40006A16B14200D100BFC1F3421501F01F0375
:101A5000012606FA03F3012D02D19689334006E0F0
:101A6000022D02D1168A334001E0968A33400C12CF
:101A7000012606FA04F41688344013B10CB1012093
:101A800000E0002070BDF0B50346002400260025CC
:101A9000002040F66A17B94200D100BF1846C1F3D2
:101AA000421401F01F06012707FA06F5012C01D1A7
:101AB0000C3004E0022C01D1103000E014301AB1D7
:101AC00007682F43076002E00768AF430760F0BD77
:101AD0002DE9FF4705460E460024A14600BFA0465B
:101AE000B08900B100BF2C8A24F44054F08804432C
:101AF0002C82AC8941F20C608443B0883189084360
:101B0000718908430443AC81AC8A24F44074B089E1
:101B10000443AC826846FFF71BFB2048854202D095
:101B20001F48854202D1DDF80C9001E0DDF80890F5
:101B3000A88900F4004040B109EBC90000EB09108E
:101B400031684900B0FBF1F707E009EBC90000EB91
:101B5000091031688900B0FBF1F76420B7FBF0F0A1
:101B600004012009642101FB1078A88900F40040D9
:101B700040B1322000EBC800B0FBF1F000F00700EC
:101B8000044308E0322000EB08106421B0FBF1F0C0
:101B900000F00F0004432C81BDE8FF8700100140D6
:101BA0000014014070B504460D4600262946204623
:101BB00000F011F800BF40212046FFF72DFF20B9AB
:101BC0003046761CB0F5A02FF5D370BD014688884D
:101BD000C0F308007047C1F308028280704700BF5D
:101BE000FEE700000FB4054B10B503A9044A0298A4
:101BF00000F0F2FF10BC5DF814FB00002133000878
:101C00002400002003B401984100009850EAC1204C
:101C100018BF04204A0D18BF40F0010040F2FF72C7
:101C2000B2EB515F08BF40F00200012808BF052059
:101C300002B07047000000002DE9F04D2DED040BBF
:101C40002DED0E8B96B0DDE92550279CDDF890A098
:101C500025F0004624F00048BAF1000F14BF01211E
:101C6000002101EB4502FC4953184A1093422AD344
:101C7000002814BF0123002303EB44030B44F7495E
:101C80008B4220D358EA00019FEDF59B76D0DFF818
:101C9000D8B35D4503D1BAF1000F05D188E0BAF1A0
:101CA000000F08BF002100D0012101EB450111F513
:101CB000001F08D8002814BF0121002101EB4401B6
:101CC00011F5001F0BD99DED261B9DED240B16B0C1
:101CD000BDEC0E8B04B0BDE8F04D00F069BE0027EE
:101CE000002DBCBFE149884521DAE1498845A8BFFC
:101CF00002271CDAC3451ADCDE4901EB28511429FE
:101D000008DDC1F1340220FA02F101FA02F2824246
:101D10000DD108E058B9C1F1140228FA02F101FA14
:101D200002F2424503D101F00101C1F1020756EA76
:101D30000A0124D1002C22DA002D18BF022F01D075
:101D4000012F0AD0022000F07FFE16B0BDEC0E8BF2
:101D500004B0BDE8F04D00F013BE022000F074FEA8
:101D600000F00EFE51EC100B81F0004141EC100B25
:101D700016B0BDEC0E8B04B0BDE8F08D18E09FED01
:101D8000BEAB9FEDBF8B002871D1B848804522D1F2
:101D900005F1804010F5801008BFBAF1000F07D0A0
:101DA000B3450ADC002CA8BF9DED260BE0DA0DE060
:101DB000B0EE490AF0EE690ADAE7002C06DA9DED8A
:101DC000260B51EC100B81F000416FE0AE487844D7
:101DD00090ED000BCCE7D8454DD1002C48DA2EB160
:101DE00086423AD1BAF1000F42D126E0BAF1000F93
:101DF00013D0022000F028FE00F0F6FD8DED020B5E
:101E00009DED240B8DED000B10EE900A039961F30C
:101E10001E0003909DED020BAAE78DED02AB9DED38
:101E2000240B1AEE901A10EE900A8DED000B61F360
:101E30001E0003909DED020B9AE78DED028B9DED48
:101E4000240B18EE901A10EE900A8DED000B61F342
:101E50001E0003909DED020B8AE709DA9DED240B2D
:101E600051EC190B53EC102BFEF7D5FA1EE020E0D5
:101E70009DED240B7CE786421BDAB4F1804F0DD038
:101E8000A4F10050B0F1FF5013D1002D11DB9DEDF6
:101E9000240B51EC100B01F05DFB07E09DED240BD2
:101EA00053EC102B51EC100B00F0C2BC41EC100BAA
:101EB0005EE79DED240B51EC100B01F024FABAF112
:101EC000000FCDE90E0142D19FED710B46B3A6F193
:101ED000E040B0F17F600CD05E4538D1002D00DAD3
:101EE000A7B3022F0CBF01204FF0FF30FEF793FC89
:101EF000DCE7002D01DD002C0DDA002D01DD002CCA
:101F00001FDB002D16DA002C14DB012F08BF9FED1C
:101F1000620B3FF42DAFB0EE4A0AF0EE6A0A27E7F3
:101F2000022F18BF002D0CD0012F0AD1002DFFF673
:101F30001FAF06E0002DB8BF002C08DA012F3FF4D8
:101F400017AFB0EE480AF0EE680A11E71BE0012077
:101F500000EBE57050EA070115D0791EB0EE498A12
:101F6000F0EE698A084308BF9FED4D8B4E4800256F
:101F7000804570DD4D494E48884514DDB0420DDB8B
:101F8000002C19DB2FE0012000F05EFD16B0BDEC47
:101F90000E8B04B0BDE8F04D00F016BDB34502DC79
:101FA000002C09DC1FE0864202DA002C1BDA03E079
:101FB0005E452BDD002C16DD022000F045FD00F013
:101FC00013FD8DED020B53EC1A2B51EC180BFEF7A1
:101FD000B0F9CDE900010399019861F31E00039067
:101FE0009DED020BC4E6022000F02EFD00F00CFD7A
:101FF00010EE901A18EE900A8DED020B8DED008B0D
:1020000061F31E0003909DED020BB1E69DED0E0BFA
:1020100053EC192B51EC100BFEF785F99FED260BB5
:10202000CDE9080153EC102B9DED080B51EC100B82
:10203000FEF77FF99FED221B53EC112BFEF776F98B
:102040009DED081B53EC112BFEF773F99FED1E1B42
:1020500053EC112B3CE08CE0FFFF1F00FFFF0F0053
:10206000000000000000F03F0000F03F0000F07FA3
:102070000000404301FCFFFF000000000000F07F73
:1020800000000000000000007E18000000000000BA
:102090000000000000000080000000000000F0FFD1
:1020A000000000000000F0BF0000E0410000F0432D
:1020B000FFFFEF3F00000000000000000000D03FE5
:1020C000555555555555D53F000000000000E03FDF
:1020D000FEF72CF99DED080B41EC1A0B53EC102B7D
:1020E00051EC100BFEF725F953EC1A2BFEF721F9F2
:1020F00041EC1A0B9FEDFE0B53EC102B9DED080BE2
:1021000051EC100BFEF715F941EC1B0B9FEDFA0B90
:1021100051EC1A0B53EC102BFEF70BF941EC1A0B98
:102120009FEDF70B53EC102B9DED080B51EC100BB2
:10213000FEF7FFF853EC1A2BFEF7F5F841EC1A0BFB
:1021400051EC1B0B53EC1A2BFEF74CF80690CDE923
:1021500006519DED060B53EC1B2B51EC100BFEF7BB
:10216000E2F853EC1A2BFEF7E1F841EC100B00F00B
:10217000A1B90020B6F5801F0EDA9FEDE30B53ECFA
:10218000102B9DED0E0B51EC100BFEF7D2F8CDE9A4
:102190000E016FF034000E4600EB2650A0F2FF3720
:1021A000C6F31300DA4940F07F6646F04056884295
:1021B000D8BF002408DDD7498142C8BF012403DC11
:1021C0000024A6F580167F1CD348784400EBC40099
:1021D0000F9690ED00CB9DED0E0B53EC1C2B51ECAC
:1021E000100BFEF7A0F89DED0E0B41EC1B0B53EC12
:1021F0001C2B51EC100BFDF7F5FF41EC100B51ECD3
:10220000190B53EC102BFEF706F941EC1D0B51ECAA
:102210001B0B53EC1D2BFEF78CF841EC1A0BBF483F
:102220008DED10AB7844109590ED000B4FF0005001
:1022300040EA660000EB84408DED080B00F50020BD
:1022400009909DED080B53EC1C2B51EC100BFEF785
:102250006AF89DED0E1B53EC112BFEF767F841EC6D
:10226000100B53EC102B9DED100B51EC100BFEF7E7
:1022700060F89DED080B41EC1C0B53EC102B9DED11
:10228000100B51EC100BFEF754F853EC1B2BFEF720
:102290004DF853EC1C2BFEF746F853EC1D2BFEF7C4
:1022A00048F841EC1C0B53EC1A2B51EC1A0BFEF7BF
:1022B00040F841EC1B0B9A480621B0EE4B0AF0EEB9
:1022C0006B0A784400F0E0FAB0EE401AF0EE601AC3
:1022D000B0EE41DAF0EE61DA53EC1B2B51EC1B0B44
:1022E000FEF727F853EC1D2BFEF723F89DED100B9E
:1022F00041EC1B0B53EC1A2B51EC100BFDF772FF4A
:1023000053EC1C2BFEF715F853EC1B2BFDF76AFF63
:102310009DED100B41EC1B0B53EC102B51EC100BF3
:10232000FEF707F841EC1D0B9FED7FEB53EC1E2BE6
:10233000FDF758FF53EC1B2BFDF754FF0890CDE938
:1023400008519DED080B53EC1E2B51EC100BFDF7C3
:10235000EAFF53EC1D2BFDF7E6FF53EC1B2BFDF7BB
:10236000E5FF9DED080B41EC1D0B53EC102B9DED93
:10237000100B51EC100BFDF7DCFF41EC1B0B53EC89
:102380001A2B51EC1D0BFDF7D4FF9DED080B41EC12
:102390001A0B53EC102B51EC1C0BFDF7CAFF53EC3E
:1023A0001A2BFDF71FFF41EC1A0B51EC1B0B53ECE2
:1023B0001A2BFDF717FF0C90CDE90C519DED0C0B7E
:1023C00053EC1B2B51EC100BFDF7ADFF53EC1A2B0C
:1023D000FDF7ACFF41EC1B0B9FED550B53EC102BA5
:1023E0009DED0C0B51EC100BFDF7A3FF41EC1A0B0C
:1023F0009FED510B51EC1B0B53EC102BFDF799FF8C
:1024000041EC1B0B9FED4E0B53EC102B9DED0C0B79
:1024100051EC100BFDF78DFF53EC1B2BFDF7E2FE8B
:1024200041EC100B4848784400EBC40090ED001BD1
:1024300051EC100B53EC112BFDF7D4FE41EC1B0BB0
:102440003846FEF7E8F9CDE9080153EC1B2B51ECB7
:102450001A0BFDF7C7FE41EC100B3C48784400EB2B
:10246000C40090ED00CB51EC100B53EC1C2BFDF78E
:10247000B9FE9DED081B53EC112BFDF7B3FE069042
:10248000CDE906519DED080B53EC102B9DED060B8D
:1024900051EC100BFDF747FF53EC1C2BFDF743FFEE
:1024A00053EC1A2BFDF73FFF53EC1B2BFDF73EFFC0
:1024B00041EC100B9DED261B53EC102B8DED001BFA
:1024C00000959DED260B51EC100BFDF732FF9DEDB5
:1024D000000B41EC1A0B53EC102B9DED260B51EC2D
:1024E000100BFDF720FF9DED061B53EC112B2FE089
:1024F000000000604715F73FFE822B654715F73F48
:1025000044DF5DF80BAE543E000000000000404385
:102510008E9803007AB60B00FA130000281400000E
:10252000321300000000000000000000000008401E
:10253000000000E009C7EE3FFD033ADC09C7EE3FAB
:10254000F5015B14E02F3EBEBE11000078110000C3
:10255000FDF7EFFE53EC1A2BFDF744FE9DED060B45
:1025600041EC1A0B53EC102B9DED000B51EC100BB2
:10257000FDF7DFFECDE90C019DED0C0B51EC1A0BC4
:1025800053EC102BFDF72EFECDE902010C46AA49B3
:102590008C422FDB611A084318D19DED0C0B53ECD4
:1025A000102B9DED020B51EC100BFDF7BCFE41EC26
:1025B0001B0B9FEDA30B51EC1A0B53EC102BFDF7EB
:1025C00011FE53EC1B2BFDF7CFFF2DD2022000F0A4
:1025D0003BFA00F009FA10EE901A18EE900A8DED11
:1025E000020B8DED008B61F31E0003909DED020B3D
:1025F000FFF7BEBB944A24F00041914214D39349A3
:10260000214408437FF4EFAC9DED0C0B53EC102BF1
:102610009DED020B51EC100BFDF785FE53EC1A2BD0
:10262000FDF7A2FF7FF6DFAC24F000408849894A1D
:10263000002601EB205182422BDA481C4FF4801116
:1026400021FA00F02044844AC0F30A517A44A1F2EE
:10265000FF3192ED000B814A8DED080BCA4020EA54
:102660000202C0F3130040F48010C1F1140120FAFB
:1026700001F60992002CB8BF76429DED080B53EC91
:10268000102B9DED0C0B51EC100BFDF74CFECDE922
:102690000C019DED0C0B51EC1A0B53EC102BFDF7BC
:1026A000A1FD9FED6F0B0890CDE9085153EC102B65
:1026B0009DED080B51EC100BFDF73BFE41EC1B0BA5
:1026C0009FED690B53EC102B9DED080B51EC100B9B
:1026D000FDF72FFE9DED0C0B41EC1C0B53EC102B6A
:1026E0009DED080B51EC100BFDF71DFE53EC1A2B62
:1026F000FDF71CFE9FED5E1B53EC112BFDF719FE41
:1027000053EC1C2BFDF76EFD41EC1A0B51EC1B0B2F
:1027100053EC1A2BFDF766FDCDE902019DED020B8E
:1027200053EC1B2B51EC100BFDF7FDFD53EC1A2B5A
:10273000FDF7FCFD9DED020B41EC1A0B53EC102B49
:1027400051EC100BFDF7F5FDCDE908014A489DED70
:10275000080B0521784400F097F89DED081B51EC1B
:10276000100B53EC112BFDF7E4FD9DED021B53EC18
:10277000112BFDF7DBFDCDE906019DED020B53ECBE
:102780001A2B51EC100BFDF7D4FD53EC1A2BFDF76F
:1027900029FD9FED3B0B41EC1A0B53EC102B9DEDEB
:1027A000060B51EC100BFDF7BEFD9DED060B41EC49
:1027B0001B0B53EC102B9DED020B51EC100BFDF796
:1027C000B8FD53EC1B2BFDF726FE53EC1A2BFDF73F
:1027D000AAFD9DED021B53EC112BFDF7A4FD53EC5C
:1027E000192BFDF7A3FDCDE9020101EB0650011500
:1027F0000029C8BF039015DC9DED020B324651EC59
:10280000100BFDF7F1FFFFF7FDF9042808BF00F0FA
:10281000FBF832469DED020B51EC100BFDF7E4FF87
:10282000CDE902019DED020B51EC180B53EC102B7E
:10283000FDF77FFDFFF73ABB00009040000000006D
:10284000FE822B654715973C00CC904000346F3FCB
:1028500001FCFFFF0000E03F00100000FFFF0F0041
:1028600000000000432EE63F396CA80C615C20BEDE
:10287000EF39FAFE422EE63FD00E000000000000C5
:10288000000000000000004070B504462DED028BF2
:102890004D1E00EBC500B0EE408AF0EE608A90ED70
:1028A000000B35F0060017D053EC182B51EC100B31
:1028B000FDF73FFD41EC100B6D1E04EBC50090EDE4
:1028C000001B51EC100B53EC112BFDF78BFC41EC72
:1028D000100B35F00600E7D1022D36D0042D1CD0A8
:1028E000062D1CBFBDEC028B70BD53EC182B51ECB8
:1028F000100BFDF71EFD94ED0A1B53EC112BFDF799
:1029000071FC53EC182BFDF714FD94ED081B53ECF0
:10291000112BFDF767FC41EC100B53EC182B51EC1D
:10292000100BFDF706FD94ED061B53EC112BFDF784
:1029300059FC53EC182BFDF7FCFC94ED040B53EC05
:10294000102BFDF74FFC41EC100B53EC182B51EC06
:10295000100BFDF7EEFC94ED021B53EC112BFDF771
:1029600041FC53EC182BFDF7E4FC94ED001B53ECF9
:10297000112BFDF737FCBDEC028B41EC100B70BD49
:102980009FED070B10B553EC102B9FED070B51EC8F
:10299000100BFDF740FD41EC100B10BD00000000D6
:1029A0000000000000000000000000000000F03FF8
:1029B00010B553EC112B51EC100BFDF713FC41EC4F
:1029C000100B10BD000000009FED050B10B553EC7F
:1029D000102B51EC100BFDF71EFD41EC100B10BD40
:1029E00000000000000000009FED050B10B553EC47
:1029F000102B51EC100BFDF79CFC41EC100B10BDA3
:102A000000000000000000709FED050B10B553ECB6
:102A1000102B51EC100BFDF78CFC41EC100B10BD92
:102A2000000000000000001002E008C8121F08C1EA
:102A3000002AFAD170477047002001E001C1121F3F
:102A4000002AFBD170470000014908607047000070
:102A5000280000202DE9FF5F82B00021DDE904306D
:102A6000020DDDF840B0034318D044F61050A2F236
:102A7000FF3242431514119801281FD0A5EB0B001B
:102A8000401C5FEA000A4FF000064E4FDFF8389115
:102A9000B046504615D5CAF1000413E01198012440
:102AA0004AA3012801D16FEA0B010298119AC0E9EB
:102AB0000031C0E9024206B0BDE8F09FCBF1000052
:102AC000DFE704460021404A491842EB0450CDE9B3
:102AD000001012E0E00707D032463B464046494628
:102AE000FDF727FC8046894632463B46104619468C
:102AF000FDF71FFC06460F466410002CEAD1DDE905
:102B00000401DDE90023BAF1000F06DAFDF711FC3C
:102B100042464B46FDF70DFC05E0FDF77CFC4246C6
:102B20004B46FDF778FC04460E460022284BFDF785
:102B30001BFD03D84FF0FF30014607E00022254B74
:102B400020463146FDF74EFBFDF776FE102409E0E6
:102B5000002C0ADB0A220023FDF750FD039B3032D4
:102B60001A55641E50EA0102F2D1641C039AC4F1A2
:102B700011031444119A012A03D0012208430DD1F4
:102B80000AE0084304D000204FF0110B119072E7C7
:102B9000A3EB0B056D1E0DE05B4504DD4FF000025D
:102BA00005F1010504E003DA4FF00002A5F101058B
:102BB000002AECD002981199C0E90231C0E9004521
:102BC00079E70000000014400000F03F30000000F2
:102BD0000000F0430000E03F2DE9FF4F95B09B4619
:102BE0008946064600250FE2252877D1002427468E
:102BF000F84A0121059400E0044316F8013F203B08
:102C000001FA03F01042F7D130782A2811D06FF082
:102C10002F033078A0F13002092A16D8059A44F023
:102C2000020402EB820203EB42021044761C059080
:102C3000EFE759F8042B0592002A03DA504244F4D6
:102C40000054059044F00204761C30782E2816D1EA
:102C500016F8010F44F004042A280DD06FF02F025B
:102C60003078A0F13003092B09D807EB870302EB7A
:102C70004303C718761CF3E759F8047B761C3078B9
:102C80006C280FD006DC4C2817D068280DD06A2895
:102C900014D104E0742810D07A280FD10DE044F448
:102CA00000140AE044F4801401E044F44014727803
:102CB000824202D104F58014761C761C3078662896
:102CC0000BD013DC582877D009DC002875D04528B4
:102CD000F6D04628F4D047281AD19DE118E06328A1
:102CE00035D0642879D0652812D195E1702873D049
:102CF00008DC6728F1D069286FD06E280DD06F28C6
:102D000006D1B5E073282CD0752875D0782874D0FA
:102D10005A46179990476D1C75E1C4F3025002287A
:102D200009D003280DD0D9F8001004280DD00D606B
:102D300009F1040967E1D9F80010EA17C1E9005266
:102D4000F6E7D9F800100D80F2E70D70F0E719F8FA
:102D5000041B8DF8001000208DF80100EA460120C8
:102D600003E059F804AB4FF0FF3061074FF000016A
:102D700002D40DE008F101018846B9420FDA80451E
:102D8000F8DB1AF808100029F4D108E008F1010175
:102D900088468142FADB1AF808100029F6D1059816
:102DA0005B46A0EB080721463846179A00F094FAD4
:102DB000284400EB080507E04DE029E10DE01AF892
:102DC000010B5A4617999047B8F10108F7D25B46B4
:102DD00021463846179A13E142E00A220092C4F3D2
:102DE00002524FF0000A022A08D059F804CB032AF5
:102DF0004FEAEC710AD00DE029E02AE009F1070161
:102E000021F00702F2E802C1914609E00FFA8CFCBA
:102E10004FEAEC71042A03D14FFA8CFC4FEAEC71B3
:102E2000002907DA0A460021DCF1000C61EB0201FF
:102E30002D2202E0220504D52B228DF80420012248
:102E400003E0E20701D02022F7E7904659E00A218B
:102E500002E010220DE010214FF0000A00910BE07B
:102E600010224FF0000A44F004040827009203E007
:102E700008224FF0000A0092C4F30252022A05D041
:102E800059F804CB0021032A08D009E009F1070111
:102E900021F00702F2E802C1914605E01FFA8CFC1E
:102EA000042A01D10CF0FF0C4FF00008220728D5AE
:102EB000702806D0009B83F0100353EA0A0305D064
:102EC0000EE040228DF80420012208E05CEA0102B5
:102ED00006D030228DF804208DF80500022290469D
:102EE000009B83F0080353EA0A030AD15CEA01025B
:102EF00001D1620705D530228DF804204FF001087A
:102F00007F1E582804D034A003900EA802900DE034
:102F100036A0F9E753466046009AFDF76FFB8446FA
:102F20000398825C0298401E029002705CEA0100E5
:102F3000F0D1029806A9081A00F1200A600702D50C
:102F400024F4803400E00127574502DDA7EB0A0096
:102F500000E0002000EB0A01009005984144401A6F
:102F60000590E00306D45B462146179A059800F0C9
:102F7000B3F90544002706E001A85A46C05D179939
:102F800090476D1C7F1C4745F6DBE0030CD55B4684
:102F90002146179A059800F09FF9054404E0302077
:102FA0005A46179990476D1C0099481E00900029B9
:102FB000F5DC08E0029802995A460078491C029113
:102FC000179990476D1CBAF10001AAF1010AF1DCD2
:102FD00065E10000092801003031323334353637DD
:102FE0003839616263646566000000003031323355
:102FF00034353637383941424344454600000000F5
:1030000000F058F90544761C307800287FF4ECADC8
:1030100019B02846BDE8F08F620700D4062709F1F1
:10302000070222F0070CFCE80223E14603F0004807
:103030005FEA080C02D00FF2702C0DE05FEA045C2E
:1030400002D50FF2682C07E05FEAC47C02D00FF2D1
:10305000602C01E0AFF2700C4FF0FF3823F000431A
:10306000CDF850C065280CD006DC452809D046288C
:103070001DD047283DD13DE0662818D067287ED175
:1030800038E00021112F01DB112000E0781CCDE990
:10309000000106A90EA8FFF7DDFCDDE90F010E9A7D
:1030A00003910021009207F1010A04914DE04FF0D5
:1030B00000400097CDE9011006A90EA8FFF7CAFC51
:1030C000DDE90F0203920E9B11990022DDF80CA09E
:1030D0000093049211B9791C00EB010AB7EB0A00C6
:1030E00004D4C0F1FF3007F1010A0490AAEB0700F5
:1030F000019044E0012F00DA01270021112F01DDAA
:10310000112000E03846CDE9000106A90EA8FFF71E
:10311000A1FCDDE90F010E9A0391002104910092B8
:10312000BA4621070CD40399514500DA8A46BAF110
:10313000010F05DD009AAAF10101515C302908D088
:10314000B84202DA10F1040F06DA0121CDE90110CC
:1031500015E0AAF10101E9E7002805DC0499014422
:103160000491AAEB000102E0411C514500DD8A46B2
:103170000499401A401C01904FF000400290200733
:1031800004D40198504501DBCDF8048000208DF86F
:103190004F0002980DF14F07B0F1004F25D02B20C2
:1031A0000E9002984FF0020800280CDA404202907C
:1031B0002D200E9007E00A210298FDF709FA303120
:1031C000029007F8011DB8F10001A8F10108F2DC36
:1031D00002980028EFD1791E0E980870307800F020
:1031E000200040F0450007F8020D12A8C01B00F1B6
:1031F00007081498007800B1012000EB0A0101983B
:1032000001EBE07105984144401A401E0590E0032F
:1032100006D45B462146179A059800F05DF80544F0
:103220001498007818B15A46179990476D1CE0031E
:1032300024D55B462146179A059800F04DF80544C1
:103240001CE00498002807DBDDE90301884203DD68
:103250000098405C179901E0179930205A46904732
:10326000049805F10105401C04900198401E01904E
:1032700004D12E205A46179990476D1CBAF10001CF
:10328000AAF1010ADDDC05E017F8010B5A4617998F
:1032900090476D1CB8F10001A8F10108F4DC5B4611
:1032A0002146179A0598ABE62D0000002B00000080
:1032B000200000002DE9F041044600251E46174677
:1032C000880404D405E039462020B0476D1C641EF4
:1032D000F9D52846BDE8F0812DE9F04104460025E6
:1032E0001E469046C80301D5302700E020278804F9
:1032F00004D505E041463846B0476D1C641EF9D53B
:103300002846BDE8F08182B0CDE9000121F00040FF
:1033100001909DED000B02B051EC100B70470000C6
:1033200070B504460D46E1B20248FEF73BFC20466C
:1033300070BD00000078004000B52DED048B85B015
:1033400001A8FDF705FF0298FDF7D4F841EC190B31
:103350009FED230B53EC102BFDF75DF841EC180BA0
:1033600053EC182B20A0FEF73DFC0398FDF7C2F8A4
:1033700041EC190B9FED1A0B53EC102BFDF74BF89A
:1033800041EC180B53EC182B1EA0FEF72BFC0498F5
:10339000FDF7B0F841EC190B9FED110B53EC102B1E
:1033A000FDF739F841EC180B53EC182B1CA0FEF775
:1033B00019FC0198FDF79EF841EC190B9FED080BE5
:1033C00053EC102BFDF727F841EC180B53EC182B9E
:1033D0001AA0FEF707FC05B0BDEC048B00BD000091
:1033E0000000000080842E4148434C4B5F467265CC
:1033F0007175656E63793A252E33664D487A0D0AEC
:103400000000000050434C4B315F4672657175659A
:103410006E63793A252E33664D487A0D0A00000016
:1034200050434C4B325F4672657175656E63793AF5
:10343000252E33664D487A0D0A0000005359534338
:103440004C4B5F4672657175656E63793A252E3314
:10345000664D487A0D0A000010B5FEF7B9F910BDA7
:1034600086B000BF4FF4A060FDF702FEFDF798FCA8
:10347000FDF75FFD4FF4E130FEF700FAFDF724FFA2
:10348000FFF75AFF1CA0FEF7ADFB1BA0FEF7AAFB3F
:103490001EA0FEF7A7FB25A0FEF7A4FBC820FDF7A2
:1034A00073FCFFF7D9FFFFF7D7FFFFF7D5FFFFF753
:1034B000D3FFFFF7D1FFFDF751FA01208DF800008F
:1034C000B7EE000A8DED010AB7EE000A8DED020A93
:1034D0009FED1E0A8DED030A9FED1D0A8DED040A76
:1034E00000208DF81400FDF743FB04E0FFF7B4FF64
:1034F0000A20FDF749FCF9E768617264776172653B
:1035000020696E6974206F6B210D0A001B5B3333D9
:103510006D686172647761726520696E6974206F8D
:103520006B211B5B306D0D0A000000001B5B33310B
:103530006D686172647761726520696E6974206F6D
:103540006B211B5B306D0D0A0000000000000000C5
:103550000000484200B52DED048B83B041EC190BFF
:10356000FDF794F941EC180B18EE100A18EE901ABA
:103570008DED008B002818BF0120084320F000408B
:10358000C0F17F6000F1E040C00F14D019EE101AB6
:1035900019EE900A8DED009B002918BF0121084308
:1035A00020F00040C0F17F6000F1E040C00F04BF98
:1035B0000120FFF749FA51EC180B03B0BDEC048B66
:1035C00000BD000000000000000000000000F03F0F
:1035D000000000000000F83F0000000000000000B4
:1035E0000000004003B8E23F0000000000000000BF
:1035F00006D0CF43EBFD4C3E033333333333E33F4D
:10360000FFAB6FDBB66DDB3F4D268F515555D53F78
:1036100001411DA96074D13F65DBC9934A86CD3F46
:10362000EF4E454A287ECA3F3E5555555555C53F34
:1036300093BDBE166CC166BF2CDE25AF6A56113F26
:10364000F16BD2C541BDBBBED0A4BE726937663E28
:103650000000000000000000783600080000002094
:103660002C000000282A0008A43600082C000020A6
:10367000F4150000382A00080000000000000000D7
:10368000E80300000000000000000000000001024C
:1036900003040102030406070809000000000000FB
:0436A0000000000026
:04000005080001AD41
:00000001FF
