:020000040800F2
:10000000C8110020C1010008910A0008CB090008AE
:100010008D0A0008090800080B16000800000000FF
:10002000000000000000000000000000DD0F0008DC
:100030002308000800000000490B00080D1100080B
:10004000DB010008DB010008DB010008DB01000820
:10005000DB010008DB010008DB010008DB01000810
:10006000DB010008DB010008DB010008DB01000800
:10007000DB010008DB010008DB010008DB010008F0
:10008000DB010008DB010008DB010008DB010008E0
:10009000DB010008DB010008DB010008DB010008D0
:1000A000DB010008DB010008DB010008DB010008C0
:1000B000DB010008DB010008DB010008DB010008B0
:1000C000DB010008DB010008DB010008DB010008A0
:1000D000DB010008DB010008DB010008DB01000890
:1000E000DB010008DB010008DB010008DB01000880
:1000F000DB010008DB010008DB010008DB01000870
:10010000DB010008DB010008DB010008DB0100085F
:10011000DB010008DB010008DB010008F911000821
:10012000DB010008DB010008DB010008DB0100083F
:10013000DB010008DB010008DB010008DB0100082F
:10014000DB010008DB010008DB010008DB0100081F
:10015000DB010008DB010008DB010008DB0100080F
:10016000DB010008DB010008DB010008DB010008FF
:10017000DB010008DB010008DB010008DB010008EF
:10018000DB010008DB01000881130008DB01000827
:10019000DB010008DB010008DB010008DB010008CF
:1001A0000000000000000000DB010008DFF80CD0B8
:1001B00000F018FB0048004745200008C811002047
:1001C0000648804706480047FEE7FEE7FEE7FEE7F1
:1001D000FEE7FEE7FEE7FEE7FEE7FEE79111000817
:1001E000AD0100082DE9FE4F804681EA0300C00FF3
:1001F0000C46009021F0004123F00045B8EB0200CE
:10020000A94105D24046214690461C460B4602466F
:1002100023F00040104347D0270DC7F30A00C3F373
:100220000A510290401A019040286BDAC3F3130080
:1002300040F4801B0098924620B10023D2EB030AC1
:1002400063EB0B0B01985946C0F14002504600F099
:10025000ECF906460D4650465946019A00F004FA5C
:1002600010EB08006141002487EA115284EAE77329
:100270001A4340D0009A62B3019A012A4FEA07520A
:1002800015DC001B61EB02014FF0004202EA07524D
:10029000CDE90042001C41F5801132462B4600F0AA
:1002A0003BFA03B0BDE8F08F40462146F9E7001B5A
:1002B00061EB0201001C41F5801300185B4120181E
:1002C000A2F5001747EB030140EAD570B6196D415E
:1002D00011E06D084FEA360645EAC0754FEA07524D
:1002E000001B61EB0201001C41F5801149084FEA37
:1002F00030000019514132462B4603B0BDE8F04FA3
:1003000000F0FBB90098012240000023D0EB02026C
:1003100063EBE073009821464FEAE074B8EB00000D
:1003200061EB0401E9E783F000435BE781F0004102
:1003300058E72DE9FE4F81EA030404F0004421F060
:10034000004100944FF0000B23F0004350EA0104F9
:100350005ED052EA03045BD0C3F30A54C1F30A55DA
:100360002C44A4F2F3340194A0FB0254C1F3130112
:1003700041F48011C3F3130343F4801301FB0244DF
:1003800000FB034E840A970A44EA815447EA8357E4
:10039000A4FB076802958D0A05FB07854FEA932C9D
:1003A00004FB0C542705029D4FEA065847EA16370E
:1003B000B5EB08056EEB070C870E920E47EA811726
:1003C00042EA8312A7FB0201B6EB0B0164EB0004C7
:1003D0002B0D43EA0C335E1844EB1C50DA465146B1
:1003E000E7FB0201C5F313044FEA0B3343EA14534E
:1003F0004FEA0432019C43EA0603A4F10C04029480
:10040000009CCDE900B400F087F903B0BDE8F08F9F
:1004100000200146F9E72DE9F04D81EA030404F0DC
:10042000004B21F0004514464FF0000A23F0004134
:1004300050EA050220D054EA01021DD0C5F30A5744
:100440000246C5F31303C1F31300C1F30A5640F487
:10045000801543F48013A7EB0608101BD64608F25C
:10046000FD3873EB050002D308F1010801E0921892
:100470005B41B8F1000F03DA00200146BDE8F08DC2
:1004800000204FF48011064684460EE0171B73EBE4
:10049000050705D3121B63EB050306434CEA010C69
:1004A00049084FEA300092185B4150EA0107EDD14C
:1004B00052EA030012D082EA040083EA05010843ED
:1004C00005D0101BAB4106D20122002306E000221A
:1004D0004FF0004302E06FF0010253101AEB0600E8
:1004E0004CEB085110EB0A0041EB0B01BDE8F04D5D
:1004F00000F003B90EB540F2334102910021CDE97D
:1005000000110A460B4600F007F903B000BD00F0E9
:10051000004230F000400AD0C10D01F56071C0F317
:10052000160042EA0151C2084007114370470020FB
:100530000146704730B5041E71F1000404DB4FF032
:100540000044404264EB0101141E73F1000405DB1A
:100550001C464FF00043524263EB0403994208BF2C
:10056000904230BD01F0004330B421F0004150EA28
:10057000010206D00A0DA2F56072C1F31301002A30
:1005800002DC30BC00207047440F44EAC104C100C3
:10059000E01830BC00EBC25000F078B830B50B4624
:1005A000014600202022012409E021FA02F59D42A3
:1005B00005D303FA02F5491B04FA02F52844151E77
:1005C000A2F10102F1DC30BD2DE9F05F054600200B
:1005D00092469B4688460646814640241BE02846B4
:1005E00041464746224600F02FF853465A46C01A65
:1005F000914110D311461846224600F016F82D1AE4
:1006000067EB01084F4622460120002100F00DF85B
:1006100017EB00094E41201EA4F10104DFDC48461F
:1006200031462A464346BDE8F09F202A04DB203AA3
:1006300000FA02F1002070479140C2F1200320FA35
:1006400003F3194390407047202A04DB203A21FA33
:1006500002F00021704721FA02F3D040C2F12002DB
:100660009140084319467047202A06DBCB17203AF1
:1006700041FA02F043EAE07306E041FA02F3D040A7
:10068000C2F1200291400843194670470029A8BFD3
:100690007047401C490008BF20F00100704710B4AB
:1006A000B0FA80FC00FA0CF050EA010404BF10BC60
:1006B000704749B1CCF1200421FA04F411FA0CF18D
:1006C00018BF012121430843A3EB0C01CB1D4FEAC6
:1006D00000614FEA102042BF002010BC704700EBC1
:1006E000C35010440029A4BF10BC7047401C4900EF
:1006F00008BF20F0010010BC704710B5141E73F144
:10070000000408DA401C41F1000192185B411A43D1
:1007100001D120F0010010BD2DE9F04D92469B461D
:1007200011B1B1FA81F202E0B0FA80F220329046C3
:10073000FFF77BFF04460F4640EA0A0041EA0B013F
:1007400053465A46084313D0114653EA010019D0C4
:10075000C8F140025046FFF777FF05460E46504667
:1007600059464246FFF761FF084305D0012004E0E7
:1007700020463946BDE8F08D0020054346EAE07684
:100780002C4337430A986305E40AA0EB08000022D3
:10079000FD0A44EA47540A3002D500200146E9E741
:1007A000010510196941DDE9084500196941BDE8F5
:1007B000F04DA2E7C1F30A52C1F3130140F2FF3337
:1007C00041F480119A4202DA00200146704740F25B
:1007D00033439A42A2F2334202DC5242FFF734BF63
:1007E000FFF723BF064C074D06E0E06840F0010329
:1007F00094E8070098471034AC42F6D3FFF7DAFCD0
:10080000382100085821000800BFFEE710B501217B
:10081000480700F0BBF900214FF0005000F0B6F996
:1008200010BD704701B504490098086000BF024838
:1008300000680028FBD108BD040000201CB5012180
:10084000084600F083F90121022000F07FF9012120
:10085000042000F07BF90121082000F077F9012144
:10086000102000F073F94FF48070009001208DF893
:10087000040000208DF8060003208DF805000120FB
:100880008DF807006946164800F030F80720009000
:1008900001208DF8040000208DF8060003208DF85B
:1008A000050001208DF8070069460E4800F01EF88B
:1008B00040F20120009001208DF8040000208DF806
:1008C000060003208DF8050001208DF80700694619
:1008D000054800F00BF80F2000F09CF81CBD00004C
:1008E000000002400004024000100240F0B50A4639
:1008F00000210023002400BF3DE0012505FA01F39B
:10090000156805EA03049C4234D105684F000326AC
:10091000BE40B543056015794E00B54006683543C5
:1009200005601579012D02D01579022D16D1856843
:100930004F000326BE40B543856055794E00B54053
:10094000866835438560456801268E40B54345601D
:10095000456896798E40B6B235434560C5684F000C
:100960000326BE40B543C560D5794E00B540C66884
:100970003543C560491C1029BFD3F0BDF0B5002335
:1009800000244D07ED0E02FA05F3CE1000F120050C
:1009900055F826504E07F70E0F26BE40B543CF1030
:1009A00000F1200646F82750CE1000F1200555F83A
:1009B000265045EA0304CE1000F1200545F82640F4
:1009C000F0BD418370470183704700BFFEE71FB54C
:1009D000684600F0FBF84FF47A710198B0FBF1F42F
:1009E000601EB0F1807F00D30FE0601E4FF0E02169
:1009F00048610F214FF0FF3000F092F800204FF0D7
:100A0000E02188610720086100BF0021481E00F036
:100A100087F81FBD00F0010119B14FF400710A4AB7
:100A2000118300F0020111B10421084A118000F085
:100A3000040111B10221054A118000F0080111B131
:100A40000121024A11807047001002401804024040
:100A500000F0010119B14FF400710A4A518300F00E
:100A6000020111B10421084A118000F0040111B102
:100A70000221054A118000F0080111B10121024A4A
:100A800011807047001002401A04024000BFFEE7C8
:100A90007047000070B5002100230F22C4781CB3FA
:100AA000174C246804F4E064C4F5E064C4F307213F
:100AB000C1F10404E3B20A4144789C40E1B2847875
:100AC000144021430C07210E0E4C05786155047823
:100AD00004F01F050124AC4005786D11AD0005F14F
:100AE000E025C5F8004109E0047804F01F05012461
:100AF000AC40054D0678761145F8264070BD0000E3
:100B00000CED00E000E400E080E100E00249014378
:100B1000024A1160704700000000FA050CED00E089
:100B200010B5002807DA0A07140E054A00F00F0373
:100B30001B1FD45403E00A07130E024A135410BDBE
:100B400018ED00E000E400E07047000029B1064A1B
:100B500012680243044B1A6004E0034A126882439D
:100B6000014B1A60704700003038024029B1064A34
:100B700012680243044B1A6004E0034A126882437D
:100B8000014B1A60704700004038024029B1064A04
:100B900012680243044B1A6004E0034A126882435D
:100BA000014B1A60704700002038024029B1064A04
:100BB00012680243044B1A6004E0034A126882433D
:100BC000014B1A607047000024380240F0B5002144
:100BD00000220024022500260223324F3F6807F03E
:100BE0000C0121B1042905D0082937D105E02E4F89
:100BF000076036E02D4F076033E02A4F3F1F3F6804
:100C0000C7F38056274F3F1F3F6807F03F036EB181
:100C1000264FB7FBF3F7DFF88CC0ACF1040CDCF81F
:100C200000C0CCF3881C07FB0CF40CE01E4FB7FB94
:100C3000F3F7DFF870C0ACF1040CDCF800C0CCF3C3
:100C4000881C07FB0CF4174F3F1F3F68C7F3014791
:100C50007F1C7D00B4FBF5F7076002E0124F0760D0
:100C600000BF00BF0F4F3F6807F0F0010909104FA8
:100C70007A5C0768D74047600A4F3F6807F4E05145
:100C8000890A0B4F7A5C4768D7408760054F3F68F9
:100C900007F46041490B064F7A5C4768D740C7604C
:100CA000F0BD0000083802400024F40040787D01C7
:100CB0000E00002010B50446012C0DD1C1031F48C1
:100CC000FFF781FE61031E48FFF77DFE40211B48B0
:100CD000FFF777FE012010BD022C0DD1210318482B
:100CE000FFF771FE40211548FFF76DFEA103134881
:100CF000FFF767FE0120EEE7042C0DD140210F48DD
:100D0000FFF761FE61030D48FFF75DFEE1020C484D
:100D1000FFF757FE0120DEE7082C0DD140210748E0
:100D2000FFF751FE21030548FFF74DFEA1020448DD
:100D3000FFF749FE0120CEE70020CCE7001002407B
:100D40000008024000B587B001218803FFF70EFFBD
:100D500001211620FFF7FAFE05220A214048FFF77D
:100D60000DFE052202213F48FFF708FE0522032160
:100D70003C48FFF703FE4FF48060009002208DF89E
:100D8000040000208DF8060002208DF807008DF881
:100D9000050069463248FFF7A9FD0C2000900220AB
:100DA0008DF8040000208DF8060002208DF8070061
:100DB0008DF8050069462B48FFF798FD48F2400082
:100DC000009001208DF8040000208DF8060001201D
:100DD0008DF8070002208DF8050069462248FFF7CC
:100DE00085FD4FF40050009001208DF80400002094
:100DF0008DF8060001208DF8070002208DF805000F
:100E000069461848FFF772FD0021184800F056F8AF
:100E1000164800F05FF80020ADF808004FF482702B
:100E2000ADF80A000020ADF80C00ADF80E0001206E
:100E3000ADF810004002ADF812002020ADF814000B
:100E40000020ADF816000720ADF8180002A90748E9
:100E500000F0A6F80121054800F030F807B000BD09
:100E60000004024000080240001002400038004028
:100E700070B504464FF6FF7500BF02210E4800F022
:100E800081F818B9281EA5F10105F6D121460A48B6
:100E900000F084F84FF6FF7500BF0121064800F00E
:100EA00071F818B9281EA5F10105F6D1024800F025
:100EB00072F8C0B270BD00000038004021B1028855
:100EC00042F04002028004E002884FF6BF731A40ED
:100ED0000280704710B504462448844208D101219D
:100EE0008014FFF763FE0021A014FFF75FFE3CE0D3
:100EF0001F48844208D101210014FFF747FE00215A
:100F00002014FFF743FE30E01A48844208D1012143
:100F1000C013FFF73BFE0021E013FFF737FE24E08C
:100F20001548844208D101214014FFF73FFE0021FB
:100F30006014FFF73BFE18E01048844209D10121FC
:100F40000805FFF733FE00214FF48010FFF72EFE57
:100F50000BE00B48844208D101214805FFF726FE2B
:100F600000214FF40010FFF721FE10BD00300140BA
:100F700000380040003C0040003401400050014077
:100F8000005401400246002013890B400BB10120A0
:100F900000E00020704701468889704781817047D2
:100FA00010B50022028802F441520B884C8823437A
:100FB0008C882343CC8823430C8923434C892343C7
:100FC0008C892343CC8923431A430280838B4FF2BD
:100FD000FF74234083830B8A038210BD7047000097
:100FE0000CB50020019000904448006840F4803027
:100FF000424908600846006840F48020086000BF4D
:101000003E48006800F4003000900198401C0190B8
:10101000009818B90198B0F5A04FF1D13748006891
:1010200000F4003010B10120009001E00020009099
:101030000098012860D131484030006840F080506D
:101040002E49403108602E48006840F440402C4949
:1010500008602A48083000682849083108600846B6
:10106000006840F4004008600846006840F4A05062
:1010700008602448091F0860081F006840F080705D
:10108000091F086000BF1D48006800F000700028BC
:10109000F9D01B48006840F480301949086000BF4F
:1010A0001748406800F480300028F9D014480068E0
:1010B00040F400301249086000BF1148406800F455
:1010C00000300028F9D040F205700F4908600B4845
:1010D0000830006820F0030008490831086008461D
:1010E000006840F00200086000BF04480830006853
:1010F00000F00C000828F8D10CBD000000380240B8
:1011000000700040195A4007003C024010B51E48CC
:10111000006820B11C480068401E1B4908601B483D
:101120000068401C1949086008460068C82803D1B7
:101130000120FFF78DFC26E014480068B0F5C87F59
:1011400003D10220FFF784FC1DE010480068B0F5D1
:10115000167F03D10420FFF77BFC14E00B480068E6
:10116000B0F5487F03D10820FFF772FC0BE0074879
:10117000006840F21451884205D1002003490860FC
:101180000F20FFF747FC10BD0400002000000020E6
:1011900010B51548006840F4700013490860134802
:1011A000006840F001001149086000200F49083133
:1011B00008600E4800680E4908400C4908600D4858
:1011C000091D0860081F006820F48020091F0860BE
:1011D000002006490C310860FFF702FF4FF0006065
:1011E00001498039086010BD88ED00E000380240F8
:1011F000FFFFF6FE103000247047000070B52DEDA3
:10120000068B0120FFF756FD0020FFF731FE054653
:101210000020FFF72DFE06460820FFF74BFD46EAAB
:1012200005242046FFF766F941EC1A0B9FED160BDB
:1012300053EC102BFFF77DF841EC190BFFF792F9F7
:1012400008EE900A04F40050B0F5005F08D19FED5D
:10125000100A38EEC00ADFED0F0A80EE208A03E0A4
:101260009FED0C0A88EE808A18EE100AFFF74FF9FE
:1012700041EC190B53EC192B07A000F0C9F9B0EEA3
:10128000480ABDEC068B70BD000000000000F03F76
:1012900000008046000000424144545F74656D7058
:1012A0003D252E32660D0A0010B588B00446522046
:1012B0008DF8040002208DF805008DF8060001204D
:1012C0008DF8070001A8FFF7E5FB01211020FFF7CB
:1012D0003DFC01218807FFF749FC08220721264829
:1012E000FFF74CFB082211462348FFF747FB4FF45A
:1012F0008070029002208DF80C0003208DF80D0004
:1013000000208DF80E0001208DF80F0002A91A4868
:10131000FFF7ECFA8020029002A91748FFF7E6FADF
:1013200004940020ADF81400ADF81600ADF81800D4
:10133000ADF81C000C20ADF81A0004A90F4800F00D
:10134000DDF840210D4800F059F810210B4800F05D
:1013500055F8012240F22551084800F0AAF8012270
:1013600040F22441054800F0A4F80121034800F0B0
:101370005DF808B010BD0000001002400078004089
:1013800070B51A4C40F22551194800F068F8D8B1F0
:1013900040F22551164800F03AF8154800F02CF9B3
:1013A000C5B2D4E90001401AFF2806D8217804F11B
:1013B000080045542068401C206020782179401A9C
:1013C000C0B20C4908800FE040F22441084800F008
:1013D00046F848B106480088C6B20548001D008896
:1013E000C6B201200449087070BD0000BC0800208E
:1013F000007800400C0000200B00002001F4007277
:10140000B2F5007F00D100BFCA430280704710B51B
:101410000022002340F66A14A14200D100BF0A1244
:1014200001249440A3B2DC43048010BD21B1828921
:1014300042F40052828104E082894DF6FF731A4023
:101440008281704702460020B1F5007F00D100BFC5
:1014500013880B400BB1012000E00020704770B5ED
:101460000246002400230025002040F66A16B142FF
:1014700000D100BFC1F3421501F01F03012606FA97
:1014800003F3012D02D19689334006E0022D02D1EB
:10149000168A334001E0968A33400C12012606FA80
:1014A00004F41688344013B10CB1012000E0002090
:1014B00070BDF0B50346002400260025002040F64C
:1014C0006A17B94200D100BF1846C1F3421401F0B7
:1014D0001F06012707FA06F5012C01D10C3004E0A4
:1014E000022C01D1103000E014301AB107682F43EC
:1014F000076002E00768AF430760F0BD2DE9FF47D2
:1015000005460E460024A14600BFA046B08900B1A2
:1015100000BF2C8A24F44054F08804432C82AC8908
:1015200041F20C608443B0883189084371890843D3
:101530000443AC81AC8A24F44074B0890443AC8287
:101540006846FFF743FB2048854202D01F4885428A
:1015500002D1DDF80C9001E0DDF80890A88900F4D4
:10156000004040B109EBC90000EB091031684900A7
:10157000B0FBF1F707E009EBC90000EB0910316897
:101580008900B0FBF1F76420B7FBF0F004012009FB
:10159000642101FB1078A88900F4004040B132209A
:1015A00000EBC800B0FBF1F000F00700044308E0D6
:1015B000322000EB08106421B0FBF1F000F00F00C6
:1015C00004432C81BDE8FF87001001400014014056
:1015D00070B504460D4600262946204600F011F855
:1015E00000BF40212046FFF72DFF20B93046761C72
:1015F000B0F5A02FF5D370BD01468888C0F3080070
:101600007047C1F308028280704700BFFEE7000008
:101610000FB4054B10B503A9044A029800F0DAF89C
:1016200010BC5DF814FB0000051F0008200000201E
:1016300002E008C8121F08C1002AFAD1704770479B
:10164000002001E001C1121F002AFBD170470000F9
:101650002DE9FF5F82B00021DDE90430020DDDF8E5
:1016600040B0034318D044F61050A2F2FF32424378
:101670001514119801281FD0A5EB0B00401C5FEA40
:10168000000A4FF000064E4FDFF83891B046504642
:1016900015D5CAF1000413E0119801244AA30128CA
:1016A00001D16FEA0B010298119AC0E90031C0E93B
:1016B000024206B0BDE8F09FCBF10000DFE7044630
:1016C0000021404A491842EB0450CDE9001012E0D5
:1016D000E00707D032463B4640464946FEF729FE22
:1016E0008046894632463B4610461946FEF721FEA3
:1016F00006460F466410002CEAD1DDE90401DDE95D
:101700000023BAF1000F06DAFEF713FE42464B46FD
:10171000FEF70FFE05E0FEF77EFE42464B46FEF763
:101720007AFE04460E460022284BFEF703FF03D83C
:101730004FF0FF30014607E00022254B204631469E
:10174000FEF750FDFFF736F8102409E0002C0ADB05
:101750000A220023FEF738FF039B30321A55641E1D
:1017600050EA0102F2D1641C039AC4F1110314443B
:10177000119A012A03D0012208430DD10AE008433F
:1017800004D000204FF0110B119072E7A3EB0B0572
:101790006D1E0DE05B4504DD4FF0000205F1010513
:1017A00004E003DA4FF00002A5F10105002AECD0B5
:1017B00002981199C0E90231C0E9004579E70000BB
:1017C000000014400000F03F300000000000F04333
:1017D0000000E03F2DE9FF4F95B09B468946064645
:1017E00000250FE2252877D100242746F84A012159
:1017F000059400E0044316F8013F203B01FA03F092
:101800001042F7D130782A2811D06FF02F033078AA
:10181000A0F13002092A16D8059A44F0020402EB1E
:10182000820203EB42021044761C0590EFE759F860
:10183000042B0592002A03DA504244F40054059028
:1018400044F00204761C30782E2816D116F8010FC9
:1018500044F004042A280DD06FF02F023078A0F154
:101860003003092B09D807EB870302EB4303C718A2
:10187000761CF3E759F8047B761C30786C280FD07F
:1018800006DC4C2817D068280DD06A2814D104E053
:10189000742810D07A280FD10DE044F400140AE027
:1018A00044F4801401E044F440147278824202D17E
:1018B00004F58014761C761C307866280BD013DC77
:1018C000582877D009DC002875D04528F6D046285E
:1018D000F4D047281AD19DE118E0632835D0642858
:1018E00079D0652812D195E1702873D008DC67287B
:1018F000F1D069286FD06E280DD06F2806D1B5E0E1
:1019000073282CD0752875D0782874D05A4617992A
:1019100090476D1C75E1C4F30250022809D00328DA
:101920000DD0D9F8001004280DD00D6009F104097C
:1019300067E1D9F80010EA17C1E90052F6E7D9F8D3
:1019400000100D80F2E70D70F0E719F8041B8DF818
:10195000001000208DF80100EA46012003E059F84C
:1019600004AB4FF0FF3061074FF0000102D40DE0EF
:1019700008F101018846B9420FDA8045F8DB1AF810
:1019800008100029F4D108E008F1010188468142DD
:10199000FADB1AF808100029F6D105985B46A0EB8F
:1019A000080721463846179A00F094FA284400EBBD
:1019B000080507E04DE029E10DE01AF8010B5A4651
:1019C00017999047B8F10108F7D25B46214638468F
:1019D000179A13E142E00A220092C4F302524FF038
:1019E000000A022A08D059F804CB032A4FEAEC7106
:1019F0000AD00DE029E02AE009F1070121F00702F1
:101A0000F2E802C1914609E00FFA8CFC4FEAEC7152
:101A1000042A03D14FFA8CFC4FEAEC71002907DA53
:101A20000A460021DCF1000C61EB02012D2202E0EC
:101A3000220504D52B228DF80420012203E0E207C1
:101A400001D02022F7E7904659E00A2102E0102257
:101A50000DE010214FF0000A00910BE010224FF032
:101A6000000A44F004040827009203E008224FF023
:101A7000000A0092C4F30252022A05D059F804CB9E
:101A80000021032A08D009E009F1070121F007022B
:101A9000F2E802C1914605E01FFA8CFC042A01D14C
:101AA0000CF0FF0C4FF00008220728D5702806D054
:101AB000009B83F0100353EA0A0305D00EE0402296
:101AC0008DF80420012208E05CEA010206D03022F1
:101AD0008DF804208DF8050002229046009B83F0CB
:101AE000080353EA0A030AD15CEA010201D1620742
:101AF00005D530228DF804204FF001087F1E5828AC
:101B000004D034A003900EA802900DE036A0F9E7AF
:101B100053466046009AFEF757FD84460398825C60
:101B20000298401E029002705CEA0100F0D1029817
:101B300006A9081A00F1200A600702D524F48034AF
:101B400000E00127574502DDA7EB0A0000E0002076
:101B500000EB0A01009005984144401A0590E0030B
:101B600006D45B462146179A059800F0B3F9054460
:101B7000002706E001A85A46C05D179990476D1CE2
:101B80007F1C4745F6DBE0030CD55B462146179AE0
:101B9000059800F09FF9054404E030205A46179953
:101BA00090476D1C0099481E00900029F5DC08E064
:101BB000029802995A460078491C02911799904759
:101BC0006D1CBAF10001AAF1010AF1DC65E1000027
:101BD0000928010030313233343536373839616203
:101BE00063646566000000003031323334353637C7
:101BF00038394142434445460000000000F058F99E
:101C00000544761C307800287FF4ECAD19B02846E6
:101C1000BDE8F08F620700D4062709F1070222F021
:101C2000070CFCE80223E14603F000485FEA080CD9
:101C300002D00FF2702C0DE05FEA045C02D50FF2C7
:101C4000682C07E05FEAC47C02D00FF2602C01E050
:101C5000AFF2700C4FF0FF3823F00043CDF850C0C6
:101C600065280CD006DC452809D046281DD0472819
:101C70003DD13DE0662818D067287ED138E00021AC
:101C8000112F01DB112000E0781CCDE9000106A92D
:101C90000EA8FFF7DDFCDDE90F010E9A039100218C
:101CA000009207F1010A04914DE04FF000400097C7
:101CB000CDE9011006A90EA8FFF7CAFCDDE90F0265
:101CC00003920E9B11990022DDF80CA00093049260
:101CD00011B9791C00EB010AB7EB0A0004D4C0F17A
:101CE000FF3007F1010A0490AAEB0700019044E0DD
:101CF000012F00DA01270021112F01DD112000E062
:101D00003846CDE9000106A90EA8FFF7A1FCDDE9E0
:101D10000F010E9A0391002104910092BA46210707
:101D20000CD40399514500DA8A46BAF1010F05DD5A
:101D3000009AAAF10101515C302908D0B84202DAB8
:101D400010F1040F06DA0121CDE9011015E0AAF126
:101D50000101E9E7002805DC049901440491AAEB9C
:101D6000000102E0411C514500DD8A460499401AF9
:101D7000401C01904FF000400290200704D40198CD
:101D8000504501DBCDF8048000208DF84F0002980B
:101D90000DF14F07B0F1004F25D02B200E90029887
:101DA0004FF0020800280CDA404202902D200E90DD
:101DB00007E00A210298FEF7F1FB3031029007F8A4
:101DC000011DB8F10001A8F10108F2DC0298002819
:101DD000EFD1791E0E980870307800F0200040F0A6
:101DE000450007F8020D12A8C01B00F1070814985F
:101DF000007800B1012000EB0A01019801EBE071CD
:101E000005984144401A401E0590E00306D45B4605
:101E10002146179A059800F05DF80544149800785B
:101E200018B15A46179990476D1CE00324D55B46BC
:101E30002146179A059800F04DF805441CE00498D7
:101E4000002807DBDDE90301884203DD0098405CE0
:101E5000179901E0179930205A469047049805F1E8
:101E60000105401C04900198401E019004D12E20D1
:101E70005A46179990476D1CBAF10001AAF1010A60
:101E8000DDDC05E017F8010B5A46179990476D1CE9
:101E9000B8F10001A8F10108F4DC5B462146179A6D
:101EA0000598ABE62D0000002B000000200000008C
:101EB0002DE9F041044600251E461746880404D447
:101EC00005E039462020B0476D1C641EF9D5284630
:101ED000BDE8F0812DE9F041044600251E469046FC
:101EE000C80301D5302700E02027880404D505E089
:101EF00041463846B0476D1C641EF9D52846BDE8FA
:101F0000F081000070B504460D46E1B20248FFF7CB
:101F10005FFB204670BD00000078004000B52DED4D
:101F2000048B85B001A8FEF751FE0298FEF7E2FA95
:101F300041EC190B9FED230B53EC102BFEF76BFAC2
:101F400041EC180B53EC182B20A0FFF761FB039812
:101F5000FEF7D0FA41EC190B9FED1A0B53EC102B46
:101F6000FEF759FA41EC180B53EC182B1EA0FFF7A3
:101F70004FFB0498FEF7BEFA41EC190B9FED110BD5
:101F800053EC102BFEF747FA41EC180B53EC182BCF
:101F90001CA0FFF73DFB0198FEF7ACFA41EC190BD2
:101FA0009FED080B53EC102BFEF735FA41EC180BA4
:101FB00053EC182B1AA0FFF72BFB05B0BDEC048BDC
:101FC00000BD00000000000080842E4148434C4BBF
:101FD0005F4672657175656E63793A252E33664D7D
:101FE000487A0D0A0000000050434C4B315F4672A6
:101FF000657175656E63793A252E33664D487A0DA5
:102000000A00000050434C4B325F467265717565A3
:102010006E63793A252E33664D487A0D0A0000002A
:10202000535953434C4B5F4672657175656E6379C6
:102030003A252E33664D487A0D0A000010B5FFF799
:10204000DDF810BD86B000BF4FF4A060FEF75EFD66
:10205000FEF7F4FBFEF7BBFC4FF4E130FFF724F989
:10206000FEF770FEFFF75AFF1CA0FFF7D1FA1BA086
:10207000FFF7CEFA1EA0FFF7CBFA25A0FFF7C8FAAC
:10208000C820FEF7CFFBFFF7D9FFFFF7D7FFFFF719
:10209000D5FFFFF7D3FFFFF7D1FFFEF7B7FB012016
:1020A0008DF80000B7EE000A8DED010AB7EE000AC8
:1020B0008DED020A9FED1E0A8DED030A9FED1D0AAC
:1020C0008DED040A00208DF8140005E0FFF7B6FF3F
:1020D0004FF47A70FEF7A6FBF8E7000068617264BF
:1020E0007761726520696E6974206F6B210D0A003B
:1020F0001B5B33336D686172647761726520696E52
:102100006974206F6B211B5B306D0D0A00000000AD
:102110001B5B33316D686172647761726520696E33
:102120006974206F6B211B5B306D0D0A000000008D
:102130000000000000004842582100080000002074
:1021400024000000301600087C2100082400002034
:10215000A41100004016000800000000000000006C
:102160000000000000000000000001020304010262
:0C2170000304060708090000000000003E
:04000005080001AD41
:00000001FF
